:030000000200A853
:0C00A800787FE4F6D8FD75810702008522
:10009800C0F9A4B0999282F880908883C6A1868C12
:10008500D2A0120003EF641060F8EF90009893F58A
:030095008080EF79
:10006C00D3EF9400EE9400400F7DFADDFE7DF9DDB8
:08007C00FEEF1F70EB1E80E88F
:010084002259
:1000030079107590F0E59054F064F06059E4FCECDD
:10001300C3940474809480504DA804740108800232
:10002300C333D8FCF4F590E4FBEBC39404748094DD
:1000330080502BAA90EB2404FFF8EA088002C31334
:10004300D8FCFA540170147F0AFE12006CEA5401C2
:100053007009EC25E025E02BF980030B80CBE964E4
:080063001070030C80A9AF012D
:01006B002272
:00000001FF
